:10000E002620202020202610201020802620302080
:10001E0030203910301030802620202020201C2047
:10002E0020802B20262020202B1026102B802620EF
:10003E00302030203910261026604010391026202E
:10004E003020302039102610268026202B102B1021
:10005E002B203010391026102B102B202B40402037
:10006E00201020102B10263030801820182026202B
:10007E002020204026202B20302030201C20202025
:10008E0020801C201C201C203020306039103010A5
:10009E0020202B1026102B10261026102B102B8014
:1000AE001820182026202020206026102B203020FB
:1000BE0030201C20202020802620301030103020B0
:1000CE00392026102B102B202B40401040102010D2
:0900DE0020102B102630308000A8
:0D016A0075890175A882758CD8758AEF2201
:03000B0002018D62
:09018D00758CD8758AEF050B3260
:10014A00E4FDFCC3ED9FEC9E5015E4FBFA0BBB00EB
:0F015A00010AEB64034A70F50DBD00010C80E44F
:010169002273
:1000E700E4F50BEF75F0D9A485F009F50A050AE5E3
:1000F7000AAE097002050914240EF58274003EF554
:1001070083E493F9B9FF0BC28C7F647E0012014A26
:1001170080DBE9700122050AE50AAE0970020509CC
:1001270014240EF58274003EF583E493F508D28C0F
:10013700B295E9FF7E0012014AE508B50BF2E4F536
:030147000B80AA80
:0A01830012016AE4FF1200E780F9A0
:0300000002017783
:0C017700787FE4F6D8FD75810B0201834F
:00000001FF
